:100000000C9462000C948A000C948A000C948A0070
:100010000C948A000C948A000C948A000C948A0038
:100020000C948A000C948A000C948A000C948A0028
:100030000C948A000C948A000C948A000C948A0018
:100040000C940C020C948A000C947C020C945602C2
:100050000C948A000C948A000C948A000C948A00F8
:100060000C948A000C948A000000000024002700F1
:100070002A000000000023002600290000000000E4
:10008000250028002B0004040404040404040202D4
:100090000202020203030303030301020408102007
:1000A0004080010204081020010204081020000012
:1000B0000008000201000003040700000000000027
:1000C0000000600411241FBECFEFD8E0DEBFCDBF1B
:1000D00011E0A0E0B1E0E6EEFBE002C005900D9279
:1000E000A231B107D9F721E0A2E1B1E001C01D9230
:1000F000A43CB207E1F710E0C2E6D0E004C02197CB
:10010000FE010E94E605C136D107C9F70E94F3023D
:100110000C94F1050C940000E2EBF0E09491EEE910
:10012000F0E02491EAE8F0E0E491EE2309F43CC029
:10013000992339F1933091F038F49130A9F092304D
:1001400001F594B59F7D12C0973091F09830A1F0E1
:100150009430B9F4909180009F7D03C0909180000D
:100160009F77909380000DC094B59F7794BD09C090
:100170009091B0009F7703C09091B0009F7D9093C5
:10018000B000F0E0EE0FFF1FE458FF4FA591B491CF
:100190009FB7F894811104C08C912095282302C048
:1001A000EC912E2B2C939FBF08953FB7F89480912C
:1001B000C0019091C101A091C201B091C30126B5C7
:1001C000A89B05C02F3F19F00196A11DB11D3FBF8F
:1001D000BA2FA92F982F8827820F911DA11DB11D1D
:1001E000BC01CD0142E0660F771F881F991F4A9519
:1001F000D1F70895CF92DF92EF92FF920F931F9362
:10020000CF93DF936C017A018B01C0E0D0E0CE1573
:10021000DF0581F0D8016D918D01D601ED91FC9142
:100220000190F081E02DC6010995892B11F02196EE
:10023000EECF7E01C701DF91CF911F910F91FF900B
:10024000EF90DF90CF900895089580E090E00895BA
:10025000FC01538D448D252F30E0842F90E0821BCC
:10026000930B541710F0CF96089501970895FC0151
:10027000918D828D981761F0828DDF01A80FB11DDD
:100280005D968C91928D9F5F9F73928F90E0089501
:100290008FEF9FEF0895FC01918D828D981731F0BB
:1002A000828DE80FF11D858D90E008958FEF9FEF0F
:1002B0000895FC01918D228D892F90E0805C9F4FE5
:1002C000821B91098F739927089582E191E00E9422
:1002D000590121E0892B09F420E0822F0895FC01C7
:1002E000848DDF01A80FB11DA35ABF4F2C91848DBF
:1002F00090E001968F739927848FA689B7892C93F4
:10030000A089B1898C91837080648C93938D848D46
:10031000981306C00288F389E02D80818F7D808349
:100320000895EF92FF920F931F93CF93DF93EC0109
:1003300081E0888F9B8D8C8D981305C0E889F989A1
:10034000808185FD26C0F62E0B8D10E00F5F1F4FBC
:100350000F731127E02E8C8DE8120CC00FB607FC2E
:10036000FACFE889F989808185FFF5CFCE010E9417
:100370006F01F1CF8B8DFE01E80FF11DE35AFF4FA6
:10038000F0829FB7F8940B8FEA89FB8980818062A5
:100390000AC09FB7F894EE89FF896083E889F989DC
:1003A00080818370806480839FBF81E090E0DF91D3
:1003B000CF911F910F91FF90EF900895CF93DF930E
:1003C000EC01888D8823C9F0EA89FB89808185FD4D
:1003D00005C0A889B9898C9186FD0FC00FB607FCAE
:1003E000F5CF808185FFF2CFA889B9898C9185FFEF
:1003F000EDCFCE010E946F01E7CFDF91CF9108953D
:1004000080E090E0892B29F00E94650181110C9415
:10041000000008950E94EC051F920F920FB60F92F4
:1004200011242F933F938F939F93AF93BF9380910A
:10043000BC019091BD01A091BE01B091BF0130916E
:10044000BB0123E0230F2D3720F40196A11DB11D20
:1004500005C026E8230F0296A11DB11D2093BB0104
:100460008093BC019093BD01A093BE01B093BF01E6
:100470008091C0019091C101A091C201B091C301CE
:100480000196A11DB11D8093C0019093C101A0935D
:10049000C201B093C301BF91AF919F918F913F91E2
:1004A0002F910F900FBE0F901F9018951F920F92D3
:1004B0000FB60F9211242F933F934F935F936F9337
:1004C0007F938F939F93AF93BF93EF93FF9382E1BB
:1004D00091E00E946F01FF91EF91BF91AF919F91C9
:1004E0008F917F916F915F914F913F912F910F90DD
:1004F0000FBE0F901F9018951F920F920FB60F927C
:1005000011242F938F939F93EF93FF93E0912201F8
:10051000F09123018081E0912801F091290182FD71
:1005200012C0908180912B018F5F8F7320912C01DD
:10053000821751F0E0912B01F0E0EE5EFE4F958FB7
:1005400080932B0101C08081FF91EF919F918F914A
:100550002F910F900FBE0F901F901895CF92DF92A2
:10056000EF92FF920F931F93E82FF92F05C00150D0
:1005700011092109310961F1908196239417B9F38A
:1005800005C0015011092109310911F1908196230B
:100590009413F7CFC12CD12CE12CF12C0AC08FEF92
:1005A000C81AD80AE80AF80A0C151D052E053F05D9
:1005B00079F080818623841791F36C2D7D2D8E2D0B
:1005C0009F2D1F910F91FF90EF90DF90CF90089596
:1005D00060E070E080E090E01F910F91FF90EF905D
:1005E000DF90CF900895789484B5826084BD84B5FF
:1005F000816084BD85B5826085BD85B5816085BD1E
:1006000080916E00816080936E00109281008091D5
:10061000810082608093810080918100816080935D
:100620008100809180008160809380008091B10082
:1006300084608093B1008091B00081608093B000AD
:1006400080917A00846080937A0080917A00826041
:1006500080937A0080917A00816080937A00809103
:100660007A00806880937A001092C100EEE9F0E091
:100670002491EAE8F0E08491882399F090E0880FD3
:10068000991FFC01E859FF4FA591B491FC01E45872
:10069000FF4F859194918FB7F894EC91E22BEC93F6
:1006A0008FBFEFE9F0E02491EBE8F0E0849188233C
:1006B000C1F090E0880F991FFC01E859FF4FC591E8
:1006C000D491FC01E458FF4FA591B4919FB7F894E1
:1006D0008881E22FE0958E2388838C91E823EC9328
:1006E0009FBFE0912201F091230182E08083E0919D
:1006F0001E01F0911F011082E0912001F091210173
:100700008FEC808310922A01E0912601F09127015D
:1007100086E08083E0912401F09125018081806151
:100720008083E0912401F09125018081886080839D
:10073000E0912401F0912501808180688083E0911F
:100740002401F091250180818F7D808389EB91E0E8
:10075000E1EBF1E011928E179F07E1F7C3E0D0E0E3
:1007600023E2A22EB12C3BE8232E30E0332E48E0CA
:10077000842E912C80E00E948C00CE010197F1F72D
:1007800081E00E948C00C5010197F1F780E00E9492
:100790008C00EFE9F0E06491F1018491E82FF0E042
:1007A000EE0FFF1FEE58FF4F8591949100E412E485
:1007B0002FE030E0462F0E94AE02611571058105E1
:1007C000910549F0DC01CB010196A11DB11DBC01D1
:1007D000CD019F7003C060E070E0CB010E94C504B2
:1007E00026E933E44BE05DE30E94290520E030E098
:1007F00040E05FE30E9429050E948D046F3F710570
:1008000019F014F06FEF70E07093BA016093B901C2
:10081000E1EBF1E080E090E02191820F911D21E079
:10082000E93BF207C9F76F3F710551F4883F9340E8
:100830003CF48091B80190E09093BA018093B901A3
:100840008091AF019091B0011091B901FC01EF547A
:10085000FE4F10830196B4010E94BE059093B00133
:100860008093AF010E94D5002B013C0189E1C82E85
:10087000D12CE12CF12C0E94D500DC01CB01841994
:100880009509A609B709883E9340A105B10598F3DB
:10089000F1E0CF1AD108E108F10828EE420E23E07A
:1008A000521E611C711CC114D104E104F10419F73A
:1008B000612F82E191E00E9491010E9400025ACFD3
:1008C000E2E1F1E01382128288EE93E0A0E0B0E072
:1008D00084839583A683B78384E091E091838083AA
:1008E00085EC90E09587848784EC90E097878687F5
:1008F00080EC90E0918B808B81EC90E0938B828BED
:1009000082EC90E0958B848B86EC90E0978B868BC5
:10091000118E128E138E148E08950E949404689482
:10092000B1110C94230508950E94080588F09F5783
:1009300098F0B92F9927B751B0F0E1F0660F771F03
:10094000881F991F1AF0BA95C9F714C0B13091F0F9
:100950000E942205B1E008950C942205672F782F9C
:100960008827B85F39F0B93FCCF3869577956795BE
:10097000B395D9F73EF490958095709561957F4F2A
:100980008F4F9F4F0895E89409C097FB3EF49095D0
:100990008095709561957F4F8F4F9F4F9923A9F058
:1009A000F92F96E9BB279395F695879577956795E7
:1009B000B795F111F8CFFAF4BB0F11F460FF1BC02B
:1009C0006F5F7F4F8F4F9F4F16C0882311F096E9BE
:1009D00011C0772321F09EE8872F762F05C066236C
:1009E00071F096E8862F70E060E02AF09A95660F25
:1009F000771F881FDAF7880F9695879597F90895DE
:100A000057FD9058440F551F59F05F3F71F04795BF
:100A1000880F97FB991F61F09F3F79F087950895A4
:100A2000121613061406551FF2CF4695F1DF08C0C3
:100A3000161617061806991FF1CF869571056105E0
:100A400008940895E894BB2766277727CB0197F988
:100A500008950E943C050C94AD050E949F0538F056
:100A60000E94A60520F0952311F00C9496050C9495
:100A70009C0511240C9423050E94000570F3959F9A
:100A8000C1F3950F50E0551F629FF001729FBB2785
:100A9000F00DB11D639FAA27F00DB11DAA1F649F21
:100AA0006627B00DA11D661F829F2227B00DA11DD4
:100AB000621F739FB00DA11D621F839FA00D611D5A
:100AC000221F749F3327A00D611D231F849F600D7B
:100AD000211D822F762F6A2F11249F5750409AF0A4
:100AE000F1F088234AF0EE0FFF1FBB1F661F771F30
:100AF000881F91505040A9F79E3F510580F00C94FB
:100B000096050C9423055F3FE4F3983ED4F3869555
:100B100077956795B795F795E7959F5FC1F7FE2B9A
:100B2000880F911D9695879597F9089597F99F6776
:100B300080E870E060E008959FEF80EC0895002465
:100B40000A941616170618060906089500240A9432
:100B500012161306140605060895092E0394000CB8
:100B600011F4882352F0BB0F40F4BF2B11F460FF47
:100B700004C06F5F7F4F8F4F9F4F089597FB072EE5
:100B800016F4009407D077FD09D00E94D20507FC27
:100B900005D03EF4909581959F4F0895709561958D
:100BA0007F4F0895AA1BBB1B51E107C0AA1FBB1FA3
:100BB000A617B70710F0A61BB70B881F991F5A95E9
:100BC000A9F780959095BC01CD010895EE0FFF1F08
:100BD0000590F491E02D099481E090E0F8940C9454
:060BE000F105F894FFCFBF
:100BE600000000009101FA002801DE0159013701D9
:020BF6004B01B1
:00000001FF
